{
  "contractName": "Product",
  "abi": [
    {
      "anonymous": false,
      "inputs": [
        {
          "indexed": false,
          "internalType": "string",
          "name": "productId",
          "type": "string"
        },
        {
          "indexed": false,
          "internalType": "string",
          "name": "name",
          "type": "string"
        },
        {
          "indexed": false,
          "internalType": "uint256",
          "name": "manufacturedDate",
          "type": "uint256"
        },
        {
          "indexed": false,
          "internalType": "uint256",
          "name": "expiryDate",
          "type": "uint256"
        },
        {
          "indexed": false,
          "internalType": "string",
          "name": "manufacturer",
          "type": "string"
        }
      ],
      "name": "ProductAdded",
      "type": "event"
    },
    {
      "anonymous": false,
      "inputs": [
        {
          "indexed": false,
          "internalType": "string",
          "name": "productId",
          "type": "string"
        },
        {
          "indexed": false,
          "internalType": "string",
          "name": "reason",
          "type": "string"
        }
      ],
      "name": "ProductNotAdded",
      "type": "event"
    },
    {
      "anonymous": false,
      "inputs": [
        {
          "indexed": false,
          "internalType": "string",
          "name": "productId",
          "type": "string"
        },
        {
          "indexed": false,
          "internalType": "string",
          "name": "reason",
          "type": "string"
        }
      ],
      "name": "ProductNotFound",
      "type": "event"
    },
    {
      "anonymous": false,
      "inputs": [
        {
          "indexed": false,
          "internalType": "string",
          "name": "reason",
          "type": "string"
        }
      ],
      "name": "TransactionNotFound",
      "type": "event"
    },
    {
      "inputs": [
        {
          "internalType": "string",
          "name": "",
          "type": "string"
        }
      ],
      "name": "products",
      "outputs": [
        {
          "internalType": "string",
          "name": "name",
          "type": "string"
        },
        {
          "internalType": "string",
          "name": "productId",
          "type": "string"
        },
        {
          "internalType": "uint256",
          "name": "manufacturedDate",
          "type": "uint256"
        },
        {
          "internalType": "uint256",
          "name": "expiryDate",
          "type": "uint256"
        },
        {
          "internalType": "string",
          "name": "manufacturer",
          "type": "string"
        }
      ],
      "stateMutability": "view",
      "type": "function",
      "constant": true
    },
    {
      "inputs": [
        {
          "internalType": "string",
          "name": "",
          "type": "string"
        }
      ],
      "name": "transactionToProduct",
      "outputs": [
        {
          "internalType": "string",
          "name": "transactionHash",
          "type": "string"
        },
        {
          "internalType": "string",
          "name": "name",
          "type": "string"
        },
        {
          "internalType": "string",
          "name": "productId",
          "type": "string"
        },
        {
          "internalType": "uint256",
          "name": "manufacturedDate",
          "type": "uint256"
        },
        {
          "internalType": "uint256",
          "name": "expiryDate",
          "type": "uint256"
        },
        {
          "internalType": "string",
          "name": "manufacturer",
          "type": "string"
        }
      ],
      "stateMutability": "view",
      "type": "function",
      "constant": true
    },
    {
      "inputs": [
        {
          "internalType": "string",
          "name": "_productId",
          "type": "string"
        },
        {
          "internalType": "string",
          "name": "_name",
          "type": "string"
        },
        {
          "internalType": "uint256",
          "name": "_manufacturedDate",
          "type": "uint256"
        },
        {
          "internalType": "uint256",
          "name": "_expiryDate",
          "type": "uint256"
        },
        {
          "internalType": "string",
          "name": "_manufacturer",
          "type": "string"
        }
      ],
      "name": "addProduct",
      "outputs": [],
      "stateMutability": "nonpayable",
      "type": "function"
    },
    {
      "inputs": [
        {
          "internalType": "string",
          "name": "_name",
          "type": "string"
        },
        {
          "internalType": "string",
          "name": "_productId",
          "type": "string"
        },
        {
          "internalType": "uint256",
          "name": "_manufacturedDate",
          "type": "uint256"
        },
        {
          "internalType": "uint256",
          "name": "_expiryDate",
          "type": "uint256"
        },
        {
          "internalType": "string",
          "name": "_manufacturer",
          "type": "string"
        }
      ],
      "name": "addProductWithCheck",
      "outputs": [],
      "stateMutability": "nonpayable",
      "type": "function"
    },
    {
      "inputs": [
        {
          "internalType": "string",
          "name": "_transactionHash",
          "type": "string"
        },
        {
          "internalType": "string",
          "name": "_name",
          "type": "string"
        },
        {
          "internalType": "string",
          "name": "_productId",
          "type": "string"
        },
        {
          "internalType": "uint256",
          "name": "_manufacturedDate",
          "type": "uint256"
        },
        {
          "internalType": "uint256",
          "name": "_expiryDate",
          "type": "uint256"
        },
        {
          "internalType": "string",
          "name": "_manufacturer",
          "type": "string"
        }
      ],
      "name": "mapTransactionToProduct",
      "outputs": [],
      "stateMutability": "nonpayable",
      "type": "function"
    },
    {
      "inputs": [
        {
          "internalType": "string",
          "name": "_productId",
          "type": "string"
        }
      ],
      "name": "getProductInfo",
      "outputs": [
        {
          "components": [
            {
              "internalType": "string",
              "name": "name",
              "type": "string"
            },
            {
              "internalType": "string",
              "name": "productId",
              "type": "string"
            },
            {
              "internalType": "uint256",
              "name": "manufacturedDate",
              "type": "uint256"
            },
            {
              "internalType": "uint256",
              "name": "expiryDate",
              "type": "uint256"
            },
            {
              "internalType": "string",
              "name": "manufacturer",
              "type": "string"
            }
          ],
          "internalType": "struct Product.AddProduct",
          "name": "",
          "type": "tuple"
        }
      ],
      "stateMutability": "view",
      "type": "function",
      "constant": true
    },
    {
      "inputs": [
        {
          "internalType": "string",
          "name": "_transactionHash",
          "type": "string"
        }
      ],
      "name": "getProductByHash",
      "outputs": [
        {
          "components": [
            {
              "internalType": "string",
              "name": "transactionHash",
              "type": "string"
            },
            {
              "internalType": "string",
              "name": "name",
              "type": "string"
            },
            {
              "internalType": "string",
              "name": "productId",
              "type": "string"
            },
            {
              "internalType": "uint256",
              "name": "manufacturedDate",
              "type": "uint256"
            },
            {
              "internalType": "uint256",
              "name": "expiryDate",
              "type": "uint256"
            },
            {
              "internalType": "string",
              "name": "manufacturer",
              "type": "string"
            }
          ],
          "internalType": "struct Product.AddProducts",
          "name": "",
          "type": "tuple"
        }
      ],
      "stateMutability": "nonpayable",
      "type": "function"
    },
    {
      "inputs": [],
      "name": "getTotalProducts",
      "outputs": [
        {
          "internalType": "uint256",
          "name": "",
          "type": "uint256"
        }
      ],
      "stateMutability": "view",
      "type": "function",
      "constant": true
    }
  ],
  "bytecode": "0x608060405234801561001057600080fd5b50611f48806100206000396000f3fe608060405234801561001057600080fd5b50600436106100885760003560e01c806357ba11b01161005b57806357ba11b0146101305780636daf0fbb14610160578063b1cd7b0c1461017c578063dbf6acb01461019857610088565b80630186a4231461008d57806323fbd6f4146100c15780634cf28526146100f6578063570aea8a14610112575b600080fd5b6100a760048036038101906100a291906112cd565b6101c8565b6040516100b89594939291906113ae565b60405180910390f35b6100db60048036038101906100d691906112cd565b6103ac565b6040516100ed96959493929190611416565b60405180910390f35b610110600480360381019061010b91906114bf565b61061e565b005b61011a61088e565b604051610127919061158e565b60405180910390f35b61014a600480360381019061014591906112cd565b610897565b6040516101579190611686565b60405180910390f35b61017a600480360381019061017591906114bf565b610a99565b005b610196600480360381019061019191906116a8565b610c66565b005b6101b260048036038101906101ad91906112cd565b610da9565b6040516101bf9190611843565b60405180910390f35b60018180516020810182018051848252602083016020850120818352809550505050505060009150905080600001805461020190611894565b80601f016020809104026020016040519081016040528092919081815260200182805461022d90611894565b801561027a5780601f1061024f5761010080835404028352916020019161027a565b820191906000526020600020905b81548152906001019060200180831161025d57829003601f168201915b50505050509080600101805461028f90611894565b80601f01602080910402602001604051908101604052809291908181526020018280546102bb90611894565b80156103085780601f106102dd57610100808354040283529160200191610308565b820191906000526020600020905b8154815290600101906020018083116102eb57829003601f168201915b50505050509080600201549080600301549080600401805461032990611894565b80601f016020809104026020016040519081016040528092919081815260200182805461035590611894565b80156103a25780601f10610377576101008083540402835291602001916103a2565b820191906000526020600020905b81548152906001019060200180831161038557829003601f168201915b5050505050905085565b6002818051602081018201805184825260208301602085012081835280955050505050506000915090508060000180546103e590611894565b80601f016020809104026020016040519081016040528092919081815260200182805461041190611894565b801561045e5780601f106104335761010080835404028352916020019161045e565b820191906000526020600020905b81548152906001019060200180831161044157829003601f168201915b50505050509080600101805461047390611894565b80601f016020809104026020016040519081016040528092919081815260200182805461049f90611894565b80156104ec5780601f106104c1576101008083540402835291602001916104ec565b820191906000526020600020905b8154815290600101906020018083116104cf57829003601f168201915b50505050509080600201805461050190611894565b80601f016020809104026020016040519081016040528092919081815260200182805461052d90611894565b801561057a5780601f1061054f5761010080835404028352916020019161057a565b820191906000526020600020905b81548152906001019060200180831161055d57829003601f168201915b50505050509080600301549080600401549080600501805461059b90611894565b80601f01602080910402602001604051908101604052809291908181526020018280546105c790611894565b80156106145780601f106105e957610100808354040283529160200191610614565b820191906000526020600020905b8154815290600101906020018083116105f757829003601f168201915b5050505050905086565b60006001856040516106309190611901565b90815260200160405180910390206002015414801561064f5750428311155b801561065a57508282115b1561075a576040518060a00160405280868152602001858152602001848152602001838152602001828152506001856040516106969190611901565b908152602001604051809103902060008201518160000190816106b99190611ac4565b5060208201518160010190816106cf9190611ac4565b50604082015181600201556060820151816003015560808201518160040190816106f99190611ac4565b50905050600160008082825461070f9190611bc5565b925050819055507f3666c6d9eae03b6b54efc3fe4a993c8dcf28665a1e06e136b84020c8e41fc237848685858560405161074d9594939291906113ae565b60405180910390a1610887565b6060600060018660405161076e9190611901565b908152602001604051809103902060020154146107c2576040518060400160405280601681526020017f50726f6475637420616c72656164792065786973747300000000000000000000815250905061084c565b428411156107ea57604051806060016040528060298152602001611eea60299139905061084b565b838311610811576040518060600160405280602b8152602001611ebf602b9139905061084a565b6040518060400160405280600d81526020017f496e76616c696420696e7075740000000000000000000000000000000000000081525090505b5b5b7fe3276540c32ce68bbb795ea078cc68b2051d131b92e6def53b216959bcf9715b858260405161087d929190611bf9565b60405180910390a1505b5050505050565b60008054905090565b61089f61110e565b6001826040516108af9190611901565b90815260200160405180910390206040518060a00160405290816000820180546108d890611894565b80601f016020809104026020016040519081016040528092919081815260200182805461090490611894565b80156109515780601f1061092657610100808354040283529160200191610951565b820191906000526020600020905b81548152906001019060200180831161093457829003601f168201915b5050505050815260200160018201805461096a90611894565b80601f016020809104026020016040519081016040528092919081815260200182805461099690611894565b80156109e35780601f106109b8576101008083540402835291602001916109e3565b820191906000526020600020905b8154815290600101906020018083116109c657829003601f168201915b505050505081526020016002820154815260200160038201548152602001600482018054610a1090611894565b80601f0160208091040260200160405190810160405280929190818152602001828054610a3c90611894565b8015610a895780601f10610a5e57610100808354040283529160200191610a89565b820191906000526020600020905b815481529060010190602001808311610a6c57829003601f168201915b5050505050815250509050919050565b6000600186604051610aab9190611901565b90815260200160405180910390206002015414610afd576040517f08c379a0000000000000000000000000000000000000000000000000000000008152600401610af490611c7c565b60405180910390fd5b42831115610b40576040517f08c379a0000000000000000000000000000000000000000000000000000000008152600401610b3790611d0e565b60405180910390fd5b828211610b82576040517f08c379a0000000000000000000000000000000000000000000000000000000008152600401610b7990611da0565b60405180910390fd5b6040518060a0016040528085815260200186815260200184815260200183815260200182815250600186604051610bb99190611901565b90815260200160405180910390206000820151816000019081610bdc9190611ac4565b506020820151816001019081610bf29190611ac4565b5060408201518160020155606082015181600301556080820151816004019081610c1c9190611ac4565b509050507f3666c6d9eae03b6b54efc3fe4a993c8dcf28665a1e06e136b84020c8e41fc2378585858585604051610c579594939291906113ae565b60405180910390a15050505050565b6000600187604051610c789190611901565b908152602001604051809103902060020154148015610c975750428311155b8015610ca257508282115b15610d66576040518060c0016040528087815260200186815260200185815260200184815260200183815260200182815250600287604051610ce49190611901565b90815260200160405180910390206000820151816000019081610d079190611ac4565b506020820151816001019081610d1d9190611ac4565b506040820151816002019081610d339190611ac4565b50606082015181600301556080820151816004015560a0820151816005019081610d5d9190611ac4565b50905050610da1565b6040517f08c379a0000000000000000000000000000000000000000000000000000000008152600401610d9890611e0c565b60405180910390fd5b505050505050565b610db161113d565b6000600283604051610dc39190611901565b90815260200160405180910390206003015403610e81577fd09d823622f24f05abea77bd1a3ce25cc609a4a0a67d22f3cf849ae357c82458604051610e0790611e9e565b60405180910390a16040518060c001604052806040518060200160405280600081525081526020016040518060200160405280600081525081526020016040518060200160405280600081525081526020016000815260200160008152602001604051806020016040528060008152508152509050611109565b600282604051610e919190611901565b90815260200160405180910390206040518060c0016040529081600082018054610eba90611894565b80601f0160208091040260200160405190810160405280929190818152602001828054610ee690611894565b8015610f335780601f10610f0857610100808354040283529160200191610f33565b820191906000526020600020905b815481529060010190602001808311610f1657829003601f168201915b50505050508152602001600182018054610f4c90611894565b80601f0160208091040260200160405190810160405280929190818152602001828054610f7890611894565b8015610fc55780601f10610f9a57610100808354040283529160200191610fc5565b820191906000526020600020905b815481529060010190602001808311610fa857829003601f168201915b50505050508152602001600282018054610fde90611894565b80601f016020809104026020016040519081016040528092919081815260200182805461100a90611894565b80156110575780601f1061102c57610100808354040283529160200191611057565b820191906000526020600020905b81548152906001019060200180831161103a57829003601f168201915b50505050508152602001600382015481526020016004820154815260200160058201805461108490611894565b80601f01602080910402602001604051908101604052809291908181526020018280546110b090611894565b80156110fd5780601f106110d2576101008083540402835291602001916110fd565b820191906000526020600020905b8154815290600101906020018083116110e057829003601f168201915b50505050508152505090505b919050565b6040518060a0016040528060608152602001606081526020016000815260200160008152602001606081525090565b6040518060c001604052806060815260200160608152602001606081526020016000815260200160008152602001606081525090565b6000604051905090565b600080fd5b600080fd5b600080fd5b600080fd5b6000601f19601f8301169050919050565b7f4e487b7100000000000000000000000000000000000000000000000000000000600052604160045260246000fd5b6111da82611191565b810181811067ffffffffffffffff821117156111f9576111f86111a2565b5b80604052505050565b600061120c611173565b905061121882826111d1565b919050565b600067ffffffffffffffff821115611238576112376111a2565b5b61124182611191565b9050602081019050919050565b82818337600083830152505050565b600061127061126b8461121d565b611202565b90508281526020810184848401111561128c5761128b61118c565b5b61129784828561124e565b509392505050565b600082601f8301126112b4576112b3611187565b5b81356112c484826020860161125d565b91505092915050565b6000602082840312156112e3576112e261117d565b5b600082013567ffffffffffffffff81111561130157611300611182565b5b61130d8482850161129f565b91505092915050565b600081519050919050565b600082825260208201905092915050565b60005b83811015611350578082015181840152602081019050611335565b60008484015250505050565b600061136782611316565b6113718185611321565b9350611381818560208601611332565b61138a81611191565b840191505092915050565b6000819050919050565b6113a881611395565b82525050565b600060a08201905081810360008301526113c8818861135c565b905081810360208301526113dc818761135c565b90506113eb604083018661139f565b6113f8606083018561139f565b818103608083015261140a818461135c565b90509695505050505050565b600060c0820190508181036000830152611430818961135c565b90508181036020830152611444818861135c565b90508181036040830152611458818761135c565b9050611467606083018661139f565b611474608083018561139f565b81810360a0830152611486818461135c565b9050979650505050505050565b61149c81611395565b81146114a757600080fd5b50565b6000813590506114b981611493565b92915050565b600080600080600060a086880312156114db576114da61117d565b5b600086013567ffffffffffffffff8111156114f9576114f8611182565b5b6115058882890161129f565b955050602086013567ffffffffffffffff81111561152657611525611182565b5b6115328882890161129f565b9450506040611543888289016114aa565b9350506060611554888289016114aa565b925050608086013567ffffffffffffffff81111561157557611574611182565b5b6115818882890161129f565b9150509295509295909350565b60006020820190506115a3600083018461139f565b92915050565b600082825260208201905092915050565b60006115c582611316565b6115cf81856115a9565b93506115df818560208601611332565b6115e881611191565b840191505092915050565b6115fc81611395565b82525050565b600060a083016000830151848203600086015261161f82826115ba565b9150506020830151848203602086015261163982826115ba565b915050604083015161164e60408601826115f3565b50606083015161166160608601826115f3565b506080830151848203608086015261167982826115ba565b9150508091505092915050565b600060208201905081810360008301526116a08184611602565b905092915050565b60008060008060008060c087890312156116c5576116c461117d565b5b600087013567ffffffffffffffff8111156116e3576116e2611182565b5b6116ef89828a0161129f565b965050602087013567ffffffffffffffff8111156117105761170f611182565b5b61171c89828a0161129f565b955050604087013567ffffffffffffffff81111561173d5761173c611182565b5b61174989828a0161129f565b945050606061175a89828a016114aa565b935050608061176b89828a016114aa565b92505060a087013567ffffffffffffffff81111561178c5761178b611182565b5b61179889828a0161129f565b9150509295509295509295565b600060c08301600083015184820360008601526117c282826115ba565b915050602083015184820360208601526117dc82826115ba565b915050604083015184820360408601526117f682826115ba565b915050606083015161180b60608601826115f3565b50608083015161181e60808601826115f3565b5060a083015184820360a086015261183682826115ba565b9150508091505092915050565b6000602082019050818103600083015261185d81846117a5565b905092915050565b7f4e487b7100000000000000000000000000000000000000000000000000000000600052602260045260246000fd5b600060028204905060018216806118ac57607f821691505b6020821081036118bf576118be611865565b5b50919050565b600081905092915050565b60006118db82611316565b6118e581856118c5565b93506118f5818560208601611332565b80840191505092915050565b600061190d82846118d0565b915081905092915050565b60008190508160005260206000209050919050565b60006020601f8301049050919050565b600082821b905092915050565b60006008830261197a7fffffffffffffffffffffffffffffffffffffffffffffffffffffffffffffffff8261193d565b611984868361193d565b95508019841693508086168417925050509392505050565b6000819050919050565b60006119c16119bc6119b784611395565b61199c565b611395565b9050919050565b6000819050919050565b6119db836119a6565b6119ef6119e7826119c8565b84845461194a565b825550505050565b600090565b611a046119f7565b611a0f8184846119d2565b505050565b5b81811015611a3357611a286000826119fc565b600181019050611a15565b5050565b601f821115611a7857611a4981611918565b611a528461192d565b81016020851015611a61578190505b611a75611a6d8561192d565b830182611a14565b50505b505050565b600082821c905092915050565b6000611a9b60001984600802611a7d565b1980831691505092915050565b6000611ab48383611a8a565b9150826002028217905092915050565b611acd82611316565b67ffffffffffffffff811115611ae657611ae56111a2565b5b611af08254611894565b611afb828285611a37565b600060209050601f831160018114611b2e5760008415611b1c578287015190505b611b268582611aa8565b865550611b8e565b601f198416611b3c86611918565b60005b82811015611b6457848901518255600182019150602085019450602081019050611b3f565b86831015611b815784890151611b7d601f891682611a8a565b8355505b6001600288020188555050505b505050505050565b7f4e487b7100000000000000000000000000000000000000000000000000000000600052601160045260246000fd5b6000611bd082611395565b9150611bdb83611395565b9250828201905080821115611bf357611bf2611b96565b5b92915050565b60006040820190508181036000830152611c13818561135c565b90508181036020830152611c27818461135c565b90509392505050565b7f50726f6475637420616c72656164792065786973747300000000000000000000600082015250565b6000611c66601683611321565b9150611c7182611c30565b602082019050919050565b60006020820190508181036000830152611c9581611c59565b9050919050565b7f4d616e75666163747572656420646174652063616e6e6f7420626520696e207460008201527f6865206675747572650000000000000000000000000000000000000000000000602082015250565b6000611cf8602983611321565b9150611d0382611c9c565b604082019050919050565b60006020820190508181036000830152611d2781611ceb565b9050919050565b7f4578706972792064617465206d757374206265206166746572206d616e75666160008201527f6374757265642064617465000000000000000000000000000000000000000000602082015250565b6000611d8a602b83611321565b9150611d9582611d2e565b604082019050919050565b60006020820190508181036000830152611db981611d7d565b9050919050565b7f436f6e646974696f6e73206e6f74207361746973666965640000000000000000600082015250565b6000611df6601883611321565b9150611e0182611dc0565b602082019050919050565b60006020820190508181036000830152611e2581611de9565b9050919050565b7f50726f6475637420646f6573206e6f7420657869737420696e2074686520737960008201527f7374656d00000000000000000000000000000000000000000000000000000000602082015250565b6000611e88602483611321565b9150611e9382611e2c565b604082019050919050565b60006020820190508181036000830152611eb781611e7b565b905091905056fe4578706972792064617465206d757374206265206166746572206d616e75666163747572656420646174654d616e75666163747572656420646174652063616e6e6f7420626520696e2074686520667574757265a2646970667358221220d48200800a73ef43423ad94bef545773bc0d953da328f87a97373a4d5ce69fb864736f6c63430008150033",
  "immutableReferences": {},
  "source": "//SPDX-License-Identifier: MIT\r\npragma solidity ^0.8.0;\r\n\r\ncontract Product {\r\n\r\n    uint256 productsCount;\r\n\r\n    //product added event\r\n    event ProductAdded(\r\n        string productId,\r\n        string name,\r\n        uint256 manufacturedDate,\r\n        uint256 expiryDate,\r\n        string manufacturer\r\n    );\r\n\r\n    //product not added event\r\n    event ProductNotAdded(string productId, string reason);\r\n\r\n    ///function that stores product details in a struct\r\n    struct AddProduct {\r\n        string name;\r\n        string productId;\r\n        uint256 manufacturedDate;\r\n        uint256 expiryDate;\r\n        string manufacturer;\r\n    }\r\n\r\n    struct AddProducts {\r\n        string transactionHash;\r\n        string name;\r\n        string productId;\r\n        uint256 manufacturedDate;\r\n        uint256 expiryDate;\r\n        string manufacturer;\r\n    }\r\n\r\n    mapping(string => AddProduct) public products; // Mapping from product ID to Product\r\n\r\n    function addProduct(\r\n        string memory _productId,\r\n        string memory _name,\r\n        uint256 _manufacturedDate,\r\n        uint256 _expiryDate,\r\n        string memory _manufacturer\r\n    ) public {\r\n        require(\r\n            products[_productId].manufacturedDate == 0,\r\n            \"Product already exists\"\r\n        );\r\n        require(\r\n            _manufacturedDate <= block.timestamp,\r\n            \"Manufactured date cannot be in the future\"\r\n        );\r\n        require(\r\n            _expiryDate > _manufacturedDate,\r\n            \"Expiry date must be after manufactured date\"\r\n        );\r\n        products[_productId] = AddProduct(\r\n            _name,\r\n            _productId,\r\n            _manufacturedDate,\r\n            _expiryDate,\r\n            _manufacturer\r\n        );\r\n        emit ProductAdded(\r\n            _productId,\r\n            _name,\r\n            _manufacturedDate,\r\n            _expiryDate,\r\n            _manufacturer\r\n        );\r\n    }\r\n\r\n    //add product with conditins\r\n    function addProductWithCheck(\r\n        string memory _name,\r\n        string memory _productId,\r\n        uint256 _manufacturedDate,\r\n        uint256 _expiryDate,\r\n        string memory _manufacturer\r\n    ) public {\r\n        if (\r\n            products[_productId].manufacturedDate == 0 &&\r\n            _manufacturedDate <= block.timestamp &&\r\n            _expiryDate > _manufacturedDate\r\n        ) {\r\n            products[_productId] = AddProduct(\r\n                _name,\r\n                _productId,\r\n                _manufacturedDate,\r\n                _expiryDate,\r\n                _manufacturer\r\n            );\r\n            productsCount += 1;\r\n\r\n            emit ProductAdded(\r\n                _productId,\r\n                _name,\r\n                _manufacturedDate,\r\n                _expiryDate,\r\n                _manufacturer\r\n            );\r\n        } else {\r\n            string memory reason;\r\n            if (products[_productId].manufacturedDate != 0) {\r\n                reason = \"Product already exists\";\r\n            } else if (_manufacturedDate > block.timestamp) {\r\n                reason = \"Manufactured date cannot be in the future\";\r\n            } else if (_expiryDate <= _manufacturedDate) {\r\n                reason = \"Expiry date must be after manufactured date\";\r\n            } else {\r\n                reason = \"Invalid input\";\r\n            }\r\n            emit ProductNotAdded(_productId, reason);\r\n            \r\n        }\r\n    }\r\n\r\n    //event  to emit when product is not found\r\n    event ProductNotFound(string productId, string reason);\r\n\r\n    mapping(string => AddProducts) public transactionToProduct;\r\n\r\n    //function that creates a prodcut struct using transaction hash\r\n    function mapTransactionToProduct(\r\n        string memory _transactionHash,\r\n        string memory _name,\r\n        string memory _productId,\r\n        uint256 _manufacturedDate,\r\n        uint256 _expiryDate,\r\n        string memory _manufacturer\r\n    ) public {\r\n        if (\r\n            products[_transactionHash].manufacturedDate == 0 &&\r\n            _manufacturedDate <= block.timestamp &&\r\n            _expiryDate > _manufacturedDate\r\n        ) {\r\n            transactionToProduct[_transactionHash] = AddProducts(\r\n                _transactionHash,\r\n                _name,\r\n                _productId,\r\n                _manufacturedDate,\r\n                _expiryDate,\r\n                _manufacturer\r\n            );\r\n        } else {\r\n            revert(\"Conditions not satisfied\");\r\n        }\r\n    }\r\n\r\n    //function that searches the database for products\r\n    function getProductInfo(\r\n        string memory _productId\r\n    ) public view returns (AddProduct memory) {\r\n        return products[_productId];\r\n    }\r\n\r\n    event TransactionNotFound(string reason);\r\n\r\n    //function that retrieves a product struct mapped to a transaction hash\r\n    function getProductByHash(\r\n    string memory _transactionHash\r\n) public returns (AddProducts memory) {\r\n    // Check if the product exists\r\n    if (transactionToProduct[_transactionHash].manufacturedDate == 0) {\r\n        emit TransactionNotFound(\"Product does not exist in the system\");\r\n        // Optionally, you can revert the transaction or return a default value\r\n        // revert(\"Product does not exist in the system\"); // Uncomment if you want to revert\r\n        // Return an empty AddProducts struct if the product is not found\r\n        return AddProducts(\"\", \"\", \"\", 0, 0, \"\"); // Returning an empty struct\r\n    } else {\r\n        return transactionToProduct[_transactionHash];\r\n    }\r\n}\r\n\r\n    function getTotalProducts() public view returns (uint256) {\r\n        return productsCount;\r\n    }\r\n\r\n}\r\n",
  "sourcePath": "D:\\Users\\Lenovo\\Documents\\AuthMain\\contracts\\Product.sol",
  "compiler": {
    "name": "solc",
    "version": "0.8.21+commit.d9974bed.Emscripten.clang"
  },
  "schemaVersion": "3.4.16",
  "updatedAt": "2025-01-06T15:11:06.891Z",
  "networkType": "ethereum",
  "devdoc": {
    "kind": "dev",
    "methods": {},
    "version": 1
  },
  "userdoc": {
    "kind": "user",
    "methods": {},
    "version": 1
  }
}